:100000000C9485020C94AD020C94AD020C94AD02DC
:100010000C94AD020C94AD020C94AD020C94AD02A4
:100020000C94AD020C94AD020C94AD020C94AD0294
:100030000C94AD020C94AD020C94AD020C94AD0284
:100040000C94150B0C94AD020C9443050C941D05F7
:100050000C94AD020C94AD020C94AD020C94AD0264
:100060000C945F0B0C94AD026D6F64434F4E462DA4
:1000700070726F63657373436F6E664964656E7407
:10008000006D6F64434F4E462D70726F63657373DE
:10009000436F6E6656657273696F6E006D6F644371
:1000A0004F4E462D70726F63657373436F6E66417A
:1000B000646472657373006D6F64434F4E462D70B8
:1000C000726F63657373436F6E6654797065006D0C
:1000D0006F64434F4E462D70726F63657373436F49
:1000E0006E6644657363006D6F64434F4E462D70BA
:1000F000726F63657373436F6E66536F6674526598
:10010000736574006D6F64434F4E462D70726F635C
:10011000657373436F6E664861726452657365748C
:10012000006D6F6447454E505552502D70726F638D
:1001300065737347656E50757270536574006D6FAB
:100140006447454E505552502D70726F63657373FE
:1001500047656E50757270507265736574006D6F8F
:100160006447454E505552502D70726F63657373DE
:1001700047656E507572704964656E74006D6F648A
:100180004C494748542D70726F636573734C6967AF
:10019000687453657444696D6D61626C65006D6F60
:1001A0006447454E505552502D70726F636573739E
:1001B0004C69676874536574006D6F644C494748B7
:1001C000542D70726F636573734C69676874536301
:1001D000656E6172696F53746F70006D6F644C4926
:1001E0004748542D70726F636573734C6967687408
:1001F0005363656E6172696F006D6F644C49474867
:10020000542D70726F636573734C696768745072B4
:1002100065736574006D6F644C494748542D707266
:100220006F636573734C696768744964656E7400C5
:10023000416374696F6E207465726D696E61746577
:10024000643A006C6F6F702D436F6D6D616E64204A
:1002500070726F6365737365642C206266724F55AC
:10026000543A006C6F6F702D4352433A4572726F6F
:10027000722C2069676E6F72696E67006C6F6F70A9
:100280002D4352433A4F4B000D0A6C6F6F702D4354
:100290006F6D6D616E64206E6F742070726F636538
:1002A000737365642C20626672494E3A00000089BF
:1002B0001112239B322446AD573665BF74488CC15A
:1002C0009D5AAFD3BE6CCAE5DB7EE9F7F881100812
:1002D0000193331A22A5562C47B7753E64C99C403A
:1002E0008DDBBF52AEEDDA64CBFFF976E802218BED
:1002F00030100299132667AF763444BD554AADC31A
:10030000BC588ED19F6EEBE7FA7CC8F5D983310AD1
:100310002091121803A7772E66B5543C45CBBD42F9
:10032000ACD99E508FEFFB66EAFDD874C904428DAC
:100330005316619F702004A9153227BB364CCEC5D9
:10034000DF5EEDD7FC6888E1997AABF3BA85520C91
:100350004397711E60A1142805B3373A26CDDE44B9
:10036000CFDFFD56ECE9986089FBBB72AA06638F6C
:100370007214409D512225AB343006B9174EEFC799
:10038000FE5CCCD5DD6AA9E3B8788AF19B87730E51
:100390006295501C41A3352A24B1163807CFFF4679
:1003A000EEDDDC54CDEBB962A8F99A708B0884813C
:1003B000951AA793B62CC2A5D33EE1B7F04008C961
:1003C00019522BDB3A644EED5F766DFF7C89940009
:1003D000859BB712A6ADD224C3BFF136E0C1184841
:1003E00009D33B5A2AE55E6C4FF77D7E6C0AA583E4
:1003F000B4188691972EE3A7F23CC0B5D14229CB21
:1004000038500AD91B666FEF7E744CFD5D8BB502C8
:10041000A499961087AFF326E2BDD034C1C3394A00
:1004200028D11A580BE77F6E6EF55C7C4D0CC685A3
:10043000D71EE597F42880A1913AA3B3B2444ACDE0
:100440005B5669DF78600CE91D722FFB3E8DD60488
:10045000C79FF516E4A9902081BBB332A2C55A4CC0
:100460004BD7795E68E11C680DF33F7A2E0EE78763
:10047000F61CC495D52AA1A3B03882B193466BCFA0
:100480007A5448DD59622DEB3C700EF91F8FF70648
:10049000E69DD414C5ABB122A0B9923083C77B4E80
:1004A0006AD5585C49E33D6A2CF11E780F000000C4
:1004B00000240027002A0000000000250028002B4F
:1004C00000000000002300260029000404040404A6
:1004D00004040402020202020203030303030301F1
:1004E00002040810204080010204081020010204C8
:1004F00008102000000008000201000003040700AB
:1005000000000000000000004B1911241FBECFEFB7
:10051000D8E0DEBFCDBF23E0A0E7B1E001C01D926F
:10052000AC31B207E1F711E0A0E0B1E0EAE8FAE3AC
:1005300002C005900D92A037B107D9F712E0C5E8C7
:10054000D2E004C02197FE010E948C19C438D10763
:10055000C9F70E94CB0D0C94431D0C940000CF9260
:10056000DF92EF92FF920F931F93CF93DF936C0173
:100570007A018B01C0E0D0E0CE15DF0589F0D8010B
:100580006D918D01D601ED91FC910190F081E02DEE
:10059000C6010995892B11F47E0102C02196ECCF8A
:1005A000C701DF91CF911F910F91FF90EF90DF90E6
:1005B000CF900895FC01918D828D981761F0828D06
:1005C000DF01A80FB11D5D968C91928D9F5F9F7387
:1005D000928F90E008958FEF9FEF0895FC01918D29
:1005E000828D981731F0828DE80FF11D858D90E096
:1005F00008958FEF9FEF0895FC01918D228D892F33
:1006000090E0805C9F4F821B91098F73992708951A
:100610008DE692E00E94FC0221E0892B09F420E0A3
:10062000822F0895FC01848DDF01A80FB11DA35A0C
:10063000BF4F2C91848D90E001968F739927848F02
:10064000A689B7892C93A089B1898C9180648C93F9
:10065000938D848D981306C00288F389E02D8081E4
:100660008F7D80830895EF92FF920F931F93CF9316
:10067000DF93EC0181E0888F9B8D8C8D981305C0F2
:10068000E889F989808185FD24C0F62E0B8D10E064
:100690000F5F1F4F0F731127E02E8C8DE8120CC0D7
:1006A0000FB607FCFACFE889F989808185FFF5CF7D
:1006B000CE010E941203F1CF8B8DFE01E80FF11DD8
:1006C000E35AFF4FF0820B8FEA89FB8980818062B9
:1006D00007C0EE89FF896083E889F9898081806499
:1006E000808381E090E0DF91CF911F910F91FF9087
:1006F000EF900895CF93DF93EC01888D8823C9F0A4
:10070000EA89FB89808185FD05C0A889B9898C911A
:1007100086FD0FC00FB607FCF5CF808185FFF2CFB5
:10072000A889B9898C9185FFEDCFCE010E94120373
:10073000E7CFDF91CF91089580E090E0892B29F0F9
:100740000E94080381110C940000089585ED8093A8
:10075000BC008091BC0084FDFCCF10927201089512
:1007600040911D02262F30E0240F311D213231052A
:10077000DCF4209172012430C9F4FC0180E090E0A7
:10078000861758F430911D022191DC01A350BE4F11
:10079000A30FB11D2C930196F3CF80911D02680F1A
:1007A00060931D0280E0089581E0089582E008953D
:1007B000E0917D01F0917E01309729F01092740153
:1007C0001092730109940895CF93DF93AC01E091E7
:1007D0007B01F0917C013097F1F09091760180914E
:1007E00075019817C0F090E0292F30E026173707E1
:1007F00054F4D901A352BE4FEA01C20FD31F88811E
:100800008C939F5FF1CF1092760160937501CB01BD
:10081000DF91CF910994DF91CF9108950895E091F0
:10082000760180917501E81730F4F0E0E352FE4F55
:10083000808190E008958FEF9FEF08959091760169
:1008400080917501981750F4E92FF0E0E352FE4FC4
:10085000208130E09F5F9093760102C02FEF3FEF41
:10086000C90108958091750190E020917601821B65
:1008700091090895CF93DF9300D0CDB7DEB7CB01B8
:10088000642F49835A830E94B0034981842F5A817F
:10089000952F0F900F90DF91CF910895CF93DF9315
:1008A0001F92CDB7DEB7698361E0CE0101960E9449
:1008B000B00381E090E00F90DF91CF910895809197
:1008C0000101813061F444E150E060EA71E08AE0C6
:1008D00093E00E943A0482E08093010108956CEC59
:1008E0008AE093E00C944E04CF93DF93C4EBD1E005
:1008F00090917501809176019817A9F0CE01845BE3
:100900009140449754F480910101823031F48AE09F
:1009100093E00E941E04888304C08AE093E00E9452
:100920001E042196E5CF80910101823031F480913F
:10093000B4018C3C11F010920101DF91CF91089528
:10094000FC018285681731F081E09385691719F001
:1009500080E0089581E0089521E0FC0182858613FE
:1009600020E0822F0895FC013A96429621912617A5
:1009700029F0E817F907D1F780E0089581E008959C
:10098000FC018285681791F08385681779F084856A
:10099000681761F08585681749F08685681731F01A
:1009A00081E09785691719F080E0089581E0089546
:1009B000FC018285681731F081E09385691719F091
:1009C00080E0089581E00895FC018285681731F088
:1009D00081E09385691719F080E0089581E008951A
:1009E00021E0FC018285681320E0822F08950E9497
:1009F000621CCF93DF9300D000D0CDB7DEB7611576
:100A000071058105910579F09B01AC0169833A83F9
:100A10004B835C830E94BC1C29813A814B815C81A1
:100A20000E94E01C03C060E070E0CB010F900F90CB
:100A30000F900F90DF91CF9108951F920F920FB6F4
:100A40000F9211242F933F934F935F936F937F9354
:100A50008F939F93AF93BF93EF93FF938DE692E0B5
:100A60000E941203FF91EF91BF91AF919F918F91DF
:100A70007F916F915F914F913F912F910F900FBE9A
:100A80000F901F9018951F920F920FB60F9211247E
:100A90002F938F939F93EF93FF93E0917D02F091BB
:100AA0007E028081E0918302F091840282FD12C077
:100AB0009081809186028F5F8F73209187028217C9
:100AC00051F0E0918602F0E0E359FD4F958F80935D
:100AD000860201C08081FF91EF919F918F912F91AC
:100AE0000F900FBE0F901F901895833081F028F45F
:100AF000813099F08230A1F008958730A9F08830D4
:100B0000B9F08430D1F4809180008F7D03C0809152
:100B100080008F7780938000089584B58F7702C01E
:100B200084B58F7D84BD08958091B0008F7703C018
:100B30008091B0008F7D8093B00008951F93CF9374
:100B4000DF93282F30E0F901ED50FB4F8491F9013C
:100B5000E152FB4FD491F901E553FB4FC491CC23F3
:100B6000C9F0162F81110E947505EC2FF0E0EE0FF1
:100B7000FF1FE954FB4FA591B4918FB7F894111161
:100B800005C09C91ED2FE095E92302C0EC91ED2B7F
:100B9000EC938FBFDF91CF911F910895CF93DF9397
:100BA00090E0FC01E152FB4F2491FC01E553FB4F27
:100BB0008491882361F190E0880F991FFC01E3552F
:100BC000FB4FC591D491FC01E954FB4FA591B49121
:100BD000611109C09FB7F89488812095822388838A
:100BE000EC912E230BC0623061F49FB7F8943881EA
:100BF000822F809583238883EC912E2B2C939FBF8B
:100C000006C08FB7F894E8812E2B28838FBFDF9121
:100C1000CF9108951F93CF93DF93182FEB0161E0DD
:100C20000E94CE05209711F460E004C0CF3FD105AB
:100C300039F461E0812FDF91CF911F910C949E05D3
:100C4000E12FF0E0ED50FB4FE491E330F9F048F490
:100C5000E130B9F0E230A1F584B5806284BDC8BD51
:100C600034C0E730E9F0E83019F1E43049F580911B
:100C70008000806280938000D0938B00C0938A00B4
:100C800024C084B5806884BDC7BD1FC0809180002A
:100C9000806880938000D0938900C093880015C03D
:100CA0008091B00080688093B000C093B3000DC005
:100CB0008091B00080628093B000C093B40005C002
:100CC000C038D1050CF0B5CFAFCFDF91CF911F91D8
:100CD00008953FB7F8948091690290916A02A091BB
:100CE0006B02B0916C0226B5A89B05C02F3F19F08E
:100CF0000196A11DB11D3FBFBA2FA92F982F88279C
:100D0000820F911DA11DB11DBC01CD0142E0660FF6
:100D1000771F881F991F4A95D1F708952FB7F89428
:100D200060916502709166028091670290916802FD
:100D30002FBF0895CF92DF92EF92FF920F931F93F0
:100D4000CF93DF938C01DC0118968C911897882340
:100D5000C1F01A96EC911A97F0E0EE0FFF1FE058E1
:100D6000FE4F80819181892BB1F51B96EC91F0E0CB
:100D7000EE0FFF1FE058FE4F80819181892B59F5BE
:100D8000B2C062E070E080E090E00E94F904C62FFB
:100D900062E070E080E090E00E94F904F62ECC233F
:100DA000D9F0F801C285D0E0CC0FDD1FC058DE4F6E
:100DB000C880D9806EE170E080E090E00E94F90484
:100DC000DC01CB010A96A11DB11DB601680F791F88
:100DD000798368831AC0F12CD8011A96CC91D0E09F
:100DE000CC0FDD1FC058DE4FC880D9806EE170E0A7
:100DF00080E090E00E94F904DC01CB010A96A11D7D
:100E0000B11DC81AD90AD982C882F801C385D0E0B9
:100E1000CC0FDD1FC058DE4FFF2099F0E880F9802D
:100E20006EE170E080E090E00E94F904DC01CB010B
:100E30000A96A11DB11DB701680F791F79836883D8
:100E400011C0E880F9806EE170E080E090E00E94DF
:100E5000F904DC01CB010A96A11DB11DE81AF90ABB
:100E6000F982E882D8011A96EC91F0E0EE0FFF1FAC
:100E7000DF01A058BE4F8D919C91119797FF02C042
:100E80001D921C92E058FE4F808191818F3F910509
:100E900029F024F08FEF90E091838083D8011B9696
:100EA000EC91F0E0EE0FFF1FDF01A058BE4F8D91D7
:100EB0009C91119797FF02C01D921C92E058FE4F23
:100EC000808191818F3F910529F024F08FEF90E090
:100ED000918380830E948E06F801628373838483EA
:100EE000958380E001C081E0DF91CF911F910F9148
:100EF000FF90EF90DF90CF900895CF92DF92EF9226
:100F0000FF92CF93DF93EC0198858985992319F09F
:100F1000882309F469C081111BC06C8D862F90E075
:100F2000A0E0B0E0CB8CD12CE12CF12CC816D90676
:100F3000EA06FB0664F4BC01CD016C197D098E093B
:100F40009F090E94F904C60ED71EE81EF91ECD8E19
:100F5000EA85F0E0EE0FFF1FE058FE4F808191819F
:100F6000892B39F0118210828F8598899F838E8317
:100F70000BC08FEF90E0918380838B859C859F834E
:100F80008E8389858F5F898799858D8D891720F557
:100F9000EA85F0E0EE0FFF1FE058FE4F118210824D
:100FA0008F89988DA98DBA8DCB88DC88ED88FE88D5
:100FB000C816D906EA06FB0664F4BC01CD016C191B
:100FC0007D098E099F090E94F904C60ED71EE81EEE
:100FD000F91EDF82CE8219860E948E066A837B8389
:100FE0008C839D8380E001C081E0DF91CF91FF90F1
:100FF000EF90DF90CF9008958F929F92AF92BF9223
:10100000EF92FF921F93CF93DF93EC018A8990E0D8
:101010007E012AE0E20EF11CD70120E030E0281723
:1010200039075CF4ED91F0E0EE0FFF1FE058FE4F42
:10103000118210822F5F3F4FF2CF1885111165C0CA
:101040000E948E0689A09AA0ABA0BCA0DC01CB01B7
:1010500088199909AA09BB098B889C88AD88BE8824
:1010600088159905AA05BB05A0F089858F5F89873A
:1010700098A1981740F48F8D807F803119F481E01A
:10108000898701C019860E948E0669A37AA38BA363
:101090009CA38985882321F10E948E0689A09AA0AD
:1010A000ABA0BCA0DC01CB0188199909AA09BB0936
:1010B0008F88988CA98CBA8C88159905AA05BB05D0
:1010C00078F44F8D842F807F2985811132C030E0E4
:1010D000C901841B91094FEF50E082179307BCF0C0
:1010E0008985811107C08F8D807F803119F08B8DAC
:1010F0009C8D02C085E090E09F838E830E948E06C7
:101100006A837B838C839D8353C011E051C08830F8
:10111000910534F797FD0BC0FE01E80FF91FE2853A
:10112000F0E0EE0FFF1FE058FE4F51834083019621
:10113000D4CF803129F530E0C90101974F70240FD9
:10114000311D215031096FEF70E08217930744F68B
:101150004A8950E0841795072CF0DC01A41BB50BDD
:10116000AD0101C0AC01FE01E40FF51FE285F0E026
:10117000EE0FFF1FE058FE4F718360830196E5CFAD
:10118000803209F0ADCF30E080E090E04FEF50E0EA
:10119000821793070CF0A4CFD701ED917D01F0E009
:1011A000EE0FFF1FE058FE4F518340830196F0CFB2
:1011B000812FDF91CF911F91FF90EF90BF90AF9063
:1011C0009F908F900895CF93DF93FC019085818548
:1011D000992319F0882309F48CC091E0980F918726
:1011E000982F9B7F29F4948D992311F08E5F81872E
:1011F0008185883028F4843020F08585811101C0F4
:101200001186A285B0E08185823019F020E030E0BF
:1012100002C02FEF30E0AA0FBB1FA058BE4F2D9386
:101220003C93A385B0E0982F9D7F913019F42FEF68
:1012300030E002C020E030E0AA0FBB1FA058BE4F34
:101240002D933C93A485B0E02EEF280F223018F4A4
:1012500020E030E002C02FEF30E0AA0FBB1FA05803
:10126000BE4F2D933C93A585B0E0863019F020E069
:1012700030E002C02FEF30E0AA0FBB1FA058BE4FD6
:101280002D933C93A685B0E0953019F42FEF30E014
:1012900002C020E030E0AA0FBB1FA058BE4F2D9324
:1012A0003C93A785B0E09AEF980F923018F420E0B5
:1012B00030E002C02FEF30E0AA0FBB1FA058BE4F96
:1012C0002D933C9380FF03C08489958907C08B7F51
:1012D00019F4808D918D02C080899189EF019783E7
:1012E00086830E948E066A837B838C839D8380E045
:1012F00001C081E0DF91CF9108950F931F93CF93A9
:10130000DF93EC0198859923A9F0EA85F0E0EE0FD0
:10131000FF1FE058FE4F20813181232B59F4EB85CC
:10132000F0E0EE0FFF1FE058FE4F20813181232BAC
:1013300009F4B0C08985882399F0EA85F0E0EE0FC2
:10134000FF1FE058FE4F208131812F3F310534F4DB
:10135000911104C0245F3F4F318320830B8512C05D
:10136000EB85F0E0EE0FFF1FE058FE4F208131814A
:101370002F3F310534F4911104C0245F3F4F318376
:1013800020830A8510E0000F111F00581E4FF8013E
:1013900060817181161617068CF4072E000C880BDD
:1013A000990B0E943C1A28E431EE4AE75FE30E9461
:1013B000C81A0E94041AF80171836083EA85F0E07C
:1013C000EE0FFF1FDF01A058BE4F8D919C9111972A
:1013D00097FF02C01D921C92E058FE4F80819181C0
:1013E0008F3F910529F024F08FEF90E09183808367
:1013F000EB85F0E0EE0FFF1FDF01A058BE4F8D918F
:101400009C91119797FF02C01D921C92E058FE4FCD
:10141000808191818F3F910529F024F08FEF90E03A
:10142000918380830E948E060C891D892E893F89B5
:10143000DC01CB01801B910BA20BB30B088D198D26
:101440002A8D3B8D081719072A073B07D8F481E03E
:101450009985911180E089870E948E066C8B7D8B27
:101460008E8B9F8B8985882329F08C859D85AE8501
:10147000BF8504C088899989AA89BB89888F998F7B
:10148000AA8FBB8F0E948E066A837B838C839D8389
:1014900080E001C081E0DF91CF911F910F9108950D
:1014A000CF93DF93FC01908582859923A1F0A82F2B
:1014B000B0E0AA0FBB1FA058BE4F2D913C91232B2B
:1014C00051F4E385F0E0EE0FFF1FE058FE4F11826C
:1014D000108281E039C090E0880F991FDC01A0588C
:1014E000BE4F2D913C91232B19F020E030E002C03B
:1014F0002FEF30E0DC01A058BE4F2D933C93A38525
:10150000B0E0232B19F020E030E002C02FEF30E0F4
:10151000AA0FBB1FA058BE4F2D933C93DC01A058CF
:10152000BE4F8D919C91892B19F48089918902C0BD
:1015300084859585EF01978386830E948E066A8352
:101540007B838C839D8380E0DF91CF910895AF9260
:10155000BF92CF92DF92EF92FF920F931F93CF93A0
:10156000DF93FC01C285D0E0CC0FDD1F9E01205827
:101570003E4F6901F901A080B180FC01E384F12CA8
:10158000AE14BF0409F445C08C018089882349F05A
:1015900064857585868597850E94041A6A0D7B1D72
:1015A0000FC0B501BB0C880B990B0E943C1AF801C7
:1015B00024853585468557850E94C81A0E94041ADD
:1015C000F60171836083F80164857585868597854A
:1015D0000E94041A1616170644F4C058DE4F88817C
:1015E0009981E816F90664F409C0672B49F0C058E0
:1015F000DE4F888199818E159F0514F4F982E88267
:101600000E948E06F801628373838483958380E051
:1016100001C081E0DF91CF911F910F91FF90EF907A
:10162000DF90CF90BF90AF9008951F920F920FB6AA
:101630000F9211242F933F938F939F93AF93BF9358
:101640008091650290916602A0916702B091680254
:101650003091640223E0230F2D3720F40196A11D61
:10166000B11D05C026E8230F0296A11DB11D2093D0
:1016700064028093650290936602A0936702B09320
:1016800068028091690290916A02A0916B02B09108
:101690006C020196A11DB11D8093690290936A02AC
:1016A000A0936B02B0936C02BF91AF919F918F9109
:1016B0003F912F910F900FBE0F901F9018951F9282
:1016C0000F920FB60F9211242F933F934F935F9376
:1016D0006F937F938F939F93AF93BF93EF93FF93FA
:1016E0008091B900887F803609F49CC068F5883203
:1016F00009F45BC090F4803109F454C038F48823B5
:1017000009F4F6C0883009F44DC0F6C0883109F4F8
:101710004CC0803209F45DC0EFC0803409F468C069
:1017200048F4803309F455C0883309F0E5C080934C
:101730004002D8C0803509F44FC0883509F45DC037
:10174000883409F0D9C0D6C0883909F4C7C0A8F4D4
:10175000883709F467C038F4883609F463C08037E5
:1017600009F460C0C9C0883809F4B8C0803909F4E8
:101770005FC0803809F0C0C05BC0803B09F486C000
:1017800038F4803A09F466C0883A09F47FC0B4C0DE
:10179000803C09F4A7C0883C09F4A4C0883B09F444
:1017A0008AC0AAC08091630210C0909162028091A9
:1017B0006102981770F5E091620281E08E0F8093CC
:1017C0006202F0E0EF5BFD4F80818093BB0085EC0F
:1017D00086C0809340028EC0E091620281E08E0F4D
:1017E000809362028091BB00F0E0EF5BFD4F80834D
:1017F00090916202809161026EC0E091620281E08C
:101800008E0F809362028091BB00F0E0EF5BFD4F92
:1018100080838091710181116DC081E0809370019E
:1018200084EA61C083E08093720110923F02CFCFBF
:1018300080913F02803208F051C0E0913F0281E088
:101840008E0F80933F028091BB00F0E0E15EFD4F80
:101850008083BDCF85EC8093BC0010927201809193
:101860003F02803230F4E0913F02F0E0E15EFD4F54
:10187000108260913F0270E0E0917701F091780171
:101880008FE192E0099510923F0236C084E0809388
:10189000720110921E0210921D02E0917901F091E6
:1018A0007A01099580911D02811105C081E0809324
:1018B0001D021092FD01E0911E0281E08E0F8093C7
:1018C0001E02F0E0E350FE4F80818093BB009091B8
:1018D0001E0280911D02981708F479CF85E8809345
:1018E000BC000AC085EC8093BC001092720104C059
:1018F000109240020E94A603FF91EF91BF91AF9119
:101900009F918F917F916F915F914F913F912F9117
:101910000F900FBE0F901F901895DC019C012E5E5A
:101920003F4F8FEF9FEF4D91FC01E427FF27EE0F14
:10193000FF1FE355FD4F45915491892F9927842727
:101940009527A217B30779F70895EF92FF920F93A7
:101950001F93CF93DF931F92CDB7DEB77C01FC01BD
:1019600000811181C80169830E94CA1C69816817BE
:1019700019F0C8010E94D21CC7010F90DF91CF91CE
:101980001F910F91FF90EF900895CF93DF9300D0B8
:10199000CDB7DEB780917F0180FF07C01A82198220
:1019A00061E1CE0101960E94A50C0F900F90DF918E
:1019B000CF9108950F931F93CF93DF9300D0CDB7AE
:1019C000DEB700E010E01A8309836FEFCE010196C5
:1019D0000E94A50C0F5F1F4F011584E0180799F7AF
:1019E0000F900F90DF91CF911F910F91089586E492
:1019F00080937C0080917A00806480937A0080914B
:101A00007A0086FDFCCF809178002091790090E0EB
:101A1000922B0895009769F0FC0101900020E9F7EE
:101A20003197AF01481B590BBC018DE692E00C9435
:101A3000AF0280E090E008958F929F92AF92BF92A4
:101A40000F931F93CF93DF93CDB7DEB7A1970FB658
:101A5000F894DEBF0FBECDBF19A2423008F44AE0B1
:101A60008E010F5D1F4F842E912CA12CB12CA5014E
:101A700094010E94121DE62FB901CA0101501109FB
:101A8000EA3014F4E05D01C0E95CD801EC93232B4B
:101A9000242B252B61F7C8010E940A0DA1960FB6D1
:101AA000F894DEBF0FBECDBFDF91CF911F910F9194
:101AB000BF90AF909F908F9008950F931F93CF93F7
:101AC000DF93EC018C010C5E1F4F8EE691E00E94CB
:101AD0000A0D699170E080E090E040E10E941C0DE9
:101AE000C017D10791F7DF91CF911F910F91089502
:101AF0000F931F93CF93DF938C01C0E0D0E0F801E8
:101B0000EC0FFD1F6491662371F0E0916D02F0917E
:101B10006E020190F081E02D8DE692E00995892B0F
:101B200011F02196ECCFCE01DF91CF911F910F9153
:101B30000895CF93DF930E94780DEC018BE691E03E
:101B40000E940A0D8C0F9D1FDF91CF910895CF93B6
:101B5000DF93E5EFF4E08491E1EEF4E0D491EDEC75
:101B6000F4E0C491CC2391F081110E947505EC2F13
:101B7000F0E0EE0FFF1FEF53FB4FA591B491EC91F6
:101B8000ED2381E090E021F480E002C080E090E06D
:101B9000DF91CF910895CF93DF9300D000D000D094
:101BA000CDB7DEB7789484B5826084BD84B581609A
:101BB00084BD85B5826085BD85B5816085BD809118
:101BC0006E00816080936E00109281008091810090
:101BD0008260809381008091810081608093810088
:101BE000809180008160809380008091B10084604A
:101BF0008093B1008091B00081608093B0008091AB
:101C00007A00846080937A0080917A008260809369
:101C10007A0080917A00816080937A0080917A00C6
:101C2000806880937A001092C1000FB6F894A8954E
:101C300080916000886180936000109260000FBE08
:101C4000E0917D02F0917E0282E08083E091790252
:101C5000F0917A021082E0917B02F0917C0280E1A7
:101C6000808310928502E0918102F091820286E0E9
:101C70008083E0917F02F091800280818061808387
:101C8000E0917F02F0918002808188608083E09102
:101C90007F02F0918002808180688083E0917F02E2
:101CA000F091800280818F7D80838FE0E8ECF1E00D
:101CB000DF011D928A95E9F780E090E00E94CA1C3E
:101CC000813181F581E090E00E94CA1CF82E80935A
:101CD000000182E090E00E94CA1CE82E8093D701A8
:101CE00003E010E0C8010E94CA1C8F3F21F0F801F8
:101CF000EB53FE4F80830F5F1F4F0131110591F7AA
:101D000098EF9F0D903710F4E1100EC087E7809395
:101D100000011092D7018FE0E8ECF1E0DF011D92A5
:101D20008A95E9F70E94DA0C84E1E4EBF1E0DF0147
:101D3000282F1D922A95E9F7E0EAF1E0DF011D92D4
:101D40008A95E9F780E2E0E8F1E0DF011D928A95EB
:101D5000E9F780910001880F8093BA0088ED93E045
:101D600090937A018093790184EE93E090937801C7
:101D70008093770110927601109275011092740190
:101D8000109273011092720181E0809371011092A0
:101D9000700161E082E10E949E0561E083E10E94A2
:101DA0009E058091B9008E7F8093B9008091B90023
:101DB0008D7F8093B90088E48093B80085E4809398
:101DC000BC0084E794E090937C0180937B018FE5D5
:101DD00094E090937E0180937D0160E082E00E9418
:101DE000CE050E94A70D8093DC0180E090E0E09199
:101DF0001603F0911703E80FF91F11821082029663
:101E000084319105A1F78091D701803209F482C015
:101E1000813209F0F7C061E084E00E94CE0561E004
:101E200087E00E94CE0561E088E00E94CE0561E077
:101E30008CE00E94CE0561E08DE00E94CE0561E05D
:101E40008EE00E94CE0561E08FE00E94CE0561E049
:101E500080E10E94CE0561E081E10E94CE0561E053
:101E600083E00E94CE0561E085E00E94CE0561E03E
:101E700086E00E94CE0561E089E00E94CE0561E027
:101E80008AE00E94CE0561E08BE00E94CE0560E012
:101E900084E00E949E0560E087E00E949E0560E06D
:101EA00088E00E949E0560E08CE00E949E0560E054
:101EB0008DE00E949E0560E08EE00E949E0560E03D
:101EC0008FE00E949E0560E080E10E949E0560E038
:101ED00081E10E949E0560E070E083E00E940A06B6
:101EE00060E070E085E00E940A0660E070E086E055
:101EF0000E940A0660E070E089E00E940A0660E045
:101F000070E08AE00E940A0660E070E08BE00E94C8
:101F10000A0678C061E084E00E94CE0561E087E0B7
:101F20000E94CE0561E088E00E94CE0561E08CE071
:101F30000E94CE0561E08DE00E94CE0561E08EE05A
:101F40000E94CE0561E08FE00E94CE0561E080E155
:101F50000E94CE0561E081E10E94CE0561E083E050
:101F60000E94CE0561E085E00E94CE0561E086E03A
:101F70000E94CE0561E089E00E94CE0561E08AE022
:101F80000E94CE0561E08BE00E94CE0560E084E017
:101F90000E949E0560E087E00E949E0560E088E068
:101FA0000E949E0560E08CE00E949E0560E08DE04E
:101FB0000E949E0560E08EE00E949E0560E08FE03A
:101FC0000E949E0560E080E10E949E0560E081E144
:101FD0000E949E0560E083E00E949E0560E085E02F
:101FE0000E949E0560E086E00E949E0560E089E018
:101FF0000E949E0560E08AE00E949E0560E08BE002
:102000000E949E0584E691E00E940A0D8BE691E015
:102010000E940A0D0E94A70D8093DC01B09101017E
:10202000BB83B11184C088E892E00E94780D84EBF4
:1020300091E00E945D0D8BE691E00E940A0D84E123
:10204000E0EAF1E011928A95E9F784EB91E00E94D1
:102050008D0CAC0155272091C60130E04217530783
:1020600009F029C2892F99272091C70130E08217F2
:10207000930709F020C28CE792E00E94990D10911D
:10208000B401113059F50091B501013109F463C271
:1020900008F017C2023009F427C2003109F434C233
:1020A0000130E1F488E690E00E94990D0093A001D0
:1020B0000093A101809100018093A2018091D7013A
:1020C0008093A3018EE0E8ECF1E0A4EAB1E0019096
:1020D0000D928A95E1F7412C512C32014092D801A2
:1020E0005092D9016092DA017092DB018091D701A0
:1020F000803209F4B4C28091D701813209F431C32E
:1021000080EA91E00E948D0C8093B2019093B3011C
:1021100081E08093010183E492E00E94780D80EADF
:1021200091E00E945D0D8BE691E00E940A0DC12CAA
:10213000D12C76018601000F111FE0911603F0915A
:102140001703E00FF11F80819181892B09F44DC0A5
:102150000E948E06E0911603F0911703E00FF11F25
:10216000A081B18112968D909D90AD90BC901597F5
:102170009B01AC01281939094A095B0949015A0137
:1021800016964D915C91179760E070E08416950665
:10219000A606B70650F1ED91FC9111970280F381EC
:1021A000E02DCD010995882301F180E392E00E94A2
:1021B000780D4AE0C701B6010E941C0D8BE691E044
:1021C0000E940A0DE0911603F0911703E00FF11F32
:1021D000808191810E94CA1B809116039091170300
:1021E000FC01E00FF11F118210823FEFC31AD30AE6
:1021F000E30AF30A4AE0C416D104E104F10409F049
:1022000099CF8091D701803221F0813209F4A7C0A3
:1022100033C161E08091820190918301892B09F49F
:1022200060E084E00E949E0561E0809184019091CD
:102230008501892B09F460E087E00E949E0561E03A
:102240008091860190918701892B09F460E088E0F4
:102250000E949E0561E08091880190918901892BFF
:1022600009F460E08CE00E949E0561E080918A01A3
:1022700090918B01892B09F460E08DE00E949E050E
:1022800061E080918C0190918D01892B09F460E0CF
:102290008EE00E949E0561E080918E0190918F01F9
:1022A000892B09F460E08FE00E949E0561E0809137
:1022B000900190919101892B09F460E080E10E94E6
:1022C0009E0561E08091920190919301892B09F420
:1022D00060E081E10E949E0561E08091940190910F
:1022E0009501892B09F460E083E00E949E0561E07E
:1022F0008091960190919701892B09F460E085E027
:102300000E949E0561E08091980190919901892B2E
:1023100009F460E086E00E949E0561E080919A01E8
:1023200090919B01892B09F460E089E00E949E0551
:1023300061E080919C0190919D01892B09F460E0FE
:102340008AE00E949E0561E080919E0190919F012C
:10235000892B09F460E08BE00E949E058DC061E04E
:102360008091820190918301892B09F460E084E0DF
:102370000E949E0561E08091840190918501892BE6
:1023800009F460E087E00E949E0561E0809186018B
:1023900090918701892B09F460E088E00E949E05F6
:1023A00061E08091880190918901892B09F460E0B6
:1023B0008CE00E949E0561E080918A0190918B01E2
:1023C000892B09F460E08DE00E949E0561E0809118
:1023D0008C0190918D01892B09F460E08EE00E94C0
:1023E0009E0561E080918E0190918F01892B09F407
:1023F00060E08FE00E949E0561E0809190019091E5
:102400009101892B09F460E080E10E949E0561E062
:102410008091920190919301892B09F460E081E110
:102420000E949E05609194017091950183E00E9445
:102430000A06609196017091970185E00E940A0654
:10244000609198017091990186E00E940A0660915E
:102450009A0170919B0189E00E940A0660919C019B
:1024600070919D018AE00E940A0660919E01709120
:102470009F018BE00E940A06C090D801D090D9013C
:10248000E090DA01F090DB01C114D104E104F10421
:1024900079F00E946906DC01CB018C199D09AE0917
:1024A000BF0981309940AD43B10510F00C94000094
:1024B0000E949C03AFCD83E692E00E94990D82E0DA
:1024C00028CE0E3F09F4AFC008F0B7C0023109F0C2
:1024D00005CE8FEC90E00E94990D16EBE12E11E0F5
:1024E000F12E0EE010E05FC081E890E00E94990DAF
:1024F0001093A0010093A1011092A20188E28093A1
:10250000A3011092A401E7CD8CE990E00E94990DFF
:102510006091B601809100018737B1F488EF860F92
:10252000803790F421E030E03A832983CE01019690
:102530000E94A50C80917F01816080937F010E94A1
:10254000C50C2FEF3FEF02C020E030E081E0809328
:10255000A00180E15EC087EB90E00E94990D609140
:10256000B601809100018737A1F4662391F082E0E3
:1025700090E09A838983CE0101960E94A50C8091F8
:102580007F01826080937F010E94C50C2FEF3FEF97
:1025900002C020E030E081E08093A00181E139C0F9
:1025A0000150110961F0D7018D917D018111F8CFA2
:1025B000A80160E070E0CD010E94671CF1CF8FE0C0
:1025C000E6EBF1E0A8ECB1E001900D928A95E1F71D
:1025D000809100018737B9F0B8ECEB2EB1E0FB2E0B
:1025E00003E010E0F70161917F011A830983CE01B6
:1025F00001960E94A50C0F5F1F4F0131110591F745
:102600002FEF3FEF02C020E030E081E08093A00197
:1026100082E18093A10181E0232B09F480E0819580
:102620008093A20158CD87EE90E00E94990D1093FF
:10263000A0010093A1018FEF0BC084E091E00E9404
:10264000990D0E94DA0C1093A0018FEF8093A101E5
:102650008093A2010E9469062B013C013FCD0091AD
:10266000B401003209F047CD1091B501113069F085
:10267000103109F04CC08EE391E00E94990DA6EB59
:10268000B1E0FD0180E090E01DC08EE591E00E9488
:10269000990D0093A0011093A101E0E8F1E0A2EAF6
:1026A000B1E08191919121E0892B09F420E02195FD
:1026B0002D9321E0E03AF207A1F71DCD31E0E63C91
:1026C000F30739F0219121502E3FC0F781E090E0CF
:1026D000F5CF009761F020E22093A00120E1209344
:1026E000A10141E0842781958093A20104CDE0E817
:1026F000F1E04D9121E030E0411102C020E030E0F6
:102700002193319351E0E03AF50799F7E4CF105265
:10271000103108F0F0CC81E291E00E94990D909187
:10272000B6012FEF290F8091B5012E3F90F0E82FD1
:10273000F0E0EE0FFF1FE05CFE4F21E030E09F3F36
:1027400011F020E030E0318320839FEF9093A201CD
:1027500002C01092A20190E29093A0018093A10187
:10276000CACC0091B401013209F0CACC1091B50174
:10277000103189F180F4113009F042C585E192E011
:102780000E94990D0093A0011093A101E0E8F1E0EF
:1027900080E090E016C0103309F457C0113309F4FB
:1027A000F0C42EC541E020813181232B09F440E0A3
:1027B000419512964C93019632968031910509F419
:1027C0009FCCDC01A056BE4F8A3091055CF320817E
:1027D00012962C93F0CF89EF91E00E94990DA6EB11
:1027E000B1E0FD0180E090E0219121502E3F10F4F6
:1027F00081E090E021E0E03CF207B1F7009749F07A
:1028000021E22093A00120E12093A10131E0832760
:10281000F5C4E0E8F1E04D9121E030E0411102C063
:1028200020E030E02193319341E0E439F40799F757
:10283000A0ECB1E0E4E9F1E02D9130E02193319397
:1028400051E0E03AF507C1F7DBCF8BED91E00E9454
:10285000990DE0911603F0911703212C312C4101C1
:10286000880C991C81919191892B31F48091B6014A
:10287000813009F06AC00BC08FEF281A380A9AE03D
:102880002916310461F73FEF81E090E066C4E090E3
:10289000B901F12CFE2CEE248091B801E80EF11C58
:1028A0006091BD0170E0762F66278091BC016B01BD
:1028B000C80ED11C81E190E00E94351B8C01409133
:1028C000BE015091BB018091BA01E091B701D801DE
:1028D00018961C92189719961C92199720E131E0CE
:1028E00011963C932E931A96EC931A97F0E0EE0F04
:1028F000FF1FE058FE4F90E0918380831796FC9273
:10290000EE9216971B965C931B9750964C93B601CC
:10291000DD0C880B990B442341F00E943C1AF8010E
:10292000648775878687978779C00E943C1A20E064
:1029300030E048EC52E40E949219D8011C966D9345
:102940007D938D939C931F9769C0823081F581E1BF
:1029500090E00E94351B8C01E091B701DC011896D4
:102960001C92189719961C92199780E191E0119684
:102970009C938E931A96EC931A97F0E0EE0FFF1F3C
:10298000E058FE4F1182108286E090E017969C93EB
:102990008E9316978FEF1B968C931B9781E0509622
:1029A0008C93509720E030E040E451E431C0833014
:1029B000E9F581E190E00E94351B8C01E091B701BF
:1029C000DC0118961C92189719961C92199780E1B1
:1029D00091E011969C938E931A96EC931A97F0E0DF
:1029E000EE0FFF1FE058FE4F8FEF90E09183808342
:1029F00086E090E017969C938E9316971B961C92F8
:102A00001B9750961C92509728E431EE4AE75FE3FB
:102A10001C962D933D934D935C931F970E948E06B9
:102A2000F80162837383848395838CC3803109F0BA
:102A30004BC0C090BA01D12CDC2CCC248091B901C0
:102A4000C80ED11CE090BC01F12CFE2CEE2480912C
:102A5000BB01E80EF11C84E190E00E94351B8C0163
:102A60002091B8013091B701DC0118961C9218979B
:102A700019961C92199788E191E011969C938E9378
:102A80001A963C931A971B962C93C601DD0CAA0B41
:102A9000BB0BF80184879587A687B787C701FF0C12
:102AA000AA0BBB0B808B918BA28BB38B0E948E06E3
:102AB000D80112966D937D938D939C9315975096A4
:102AC0008D919C915197EBC0813109F053C0C0901A
:102AD000BA01D12CDC2CCC248091B901C80ED11CB8
:102AE000E090BC01F12CFE2CEE248091BB01E80E9D
:102AF000F11C8CE190E00E94351B8C012091B80103
:102B00003091B701FC011086118680E291E091833B
:102B1000808332872387C601DD0CAA0BBB0B848719
:102B20009587A687B787C701FF0CAA0BBB0B808BC5
:102B3000918BA28BB38B0E948E06D80112966D9357
:102B40007D938D939C93159786E090E017969C93C8
:102B50008E9316970E948E06F801648B758B868B78
:102B6000978B80899189A289B389808F918FA28F59
:102B7000B38FE8C2823109F097C0E090BE01F12C1A
:102B8000FE2CEE248091BD01E80EF11CC090C00126
:102B9000D12CDC2CCC248091BF01C80ED11CA0907C
:102BA000C201B12CBA2CAA248091C101A80EB11C7B
:102BB0008DE190E00E94351B8C018091BC019091C9
:102BC000BB012091BA016091B9013091B801A09187
:102BD000B701F8011086118648E251E05183408325
:102BE000A28733876487258796878787B0E0AA0FF7
:102BF000BB1FA058BE4F1D921C92A32FB0E0AA0F7E
:102C0000BB1FA058BE4F1D921C92E62FF0E0EE0FA6
:102C1000FF1FE058FE4F4FEF50E051834083E22FFB
:102C2000F0E0EE0FFF1FE058FE4F11821082E92FF7
:102C3000F0E0EE0FFF1FE058FE4F11821082E82FE8
:102C4000F0E0EE0FFF1FE058FE4F51834083C701B5
:102C5000FF0CAA0BBB0BF801808B918BA28BB38B63
:102C60000D2C000CEE08FF08C48AD58AE68AF78A84
:102C7000C501BB0CAA0BBB0B808F918FA28FB38FAA
:102C800081E0848F0E948E06D80112966D937D9309
:102C90008D939C93159758968D919C915997179663
:102CA0009C938E9316974EC2833109F085C0E090B5
:102CB000BE01F12CFE2CEE248091BD01E80EF11C2A
:102CC000C090C001D12CDC2CCC248091BF01C80E57
:102CD000D11CA090C201B12CBA2CAA248091C101B0
:102CE000A80EB11C8DE190E00E94351B8C018091F3
:102CF000BC019091BB012091BA016091B901309162
:102D0000B801A091B701F8011086118648E251E0A0
:102D100051834083A2873387648725879687878777
:102D2000B0E0AA0FBB1FA058BE4F1D921C92A32F4C
:102D3000B0E0AA0FBB1FA058BE4F1D921C92E62FF9
:102D4000F0E0EE0FFF1FE058FE4F4FEF50E05183D1
:102D50004083E22FF0E0EE0FFF1FE058FE4F11829C
:102D60001082E92FF0E0EE0FFF1FE058FE4F1182B6
:102D70001082E82FF0E0EE0FFF1FE058FE4F518366
:102D80004083C701FF0CAA0BBB0BF801808B918B12
:102D9000A28BB38B0D2C000CEE08FF08C48AD58AD9
:102DA000E68AF78AC501BB0CAA0BBB0B808F918FFB
:102DB000A28FB38F148E66CF843109F0B7C0E09034
:102DC000C001F12CFE2CEE248091BF01E80EF11C15
:102DD000C090C201D12CDC2CCC248091C101C80E42
:102DE000D11CA090C401B12CBA2CAA248091C3019B
:102DF000A80EB11C85E290E00E94351B8C01209149
:102E0000C5013091BE014091BD015091BC0160915E
:102E1000BB017091BA01E091B901F091B801B09194
:102E2000B701BE83DC0118961C92189719961C9264
:102E3000199780E391E011969C938E9388E05296C7
:102E40008C9352978E811A968C931A97811102C097
:102E500052961C92D8011B96FC931B97F11103C04C
:102E600081E052968C93D8011C96EC931C97E1114B
:102E700003C082E052968C93F8017587711102C0ED
:102E800083E0828BD8011E966C931E97611103C05C
:102E900084E052968C93F8015787511102C085E067
:102EA000828BD80150964C935097411103C086E015
:102EB00052968C93F801318B311102C087E0828BDE
:102EC000C701FF0CAA0BBB0BF801838B948BA58B5E
:102ED000B68B0D2C000CEE08FF08C78AD08EE18E51
:102EE000F28EC501BB0CAA0BBB0B838F948FA58FF1
:102EF000B68F278F8289922F907F21F4280F21503F
:102F000020A301C080A30E948E06F80161A372A3D2
:102F100083A394A30E948E06D80112966D937D938D
:102F20008D939C93159785E090E0B9CE853109F09B
:102F300070C0A090B901B12CBA2CAA248091B8011C
:102F4000B501680F711D8091BB0190E0382F2227D9
:102F50008091BA015901A80EB11CC090BD01D12CBD
:102F6000DC2CCC248091BC01C80ED11CE090BF01A8
:102F7000F12CFE2CEE248091BE01E80EF11C8EE1B6
:102F800090E06C837D830E94351B8C012091C101F0
:102F90003091C0014091B701FC011086118688E391
:102FA00091E09183808342876C817D81CB01770F93
:102FB000AA0BBB0B83879487A587B687C5010B2C0B
:102FC000000CAA0BBB0B8787908BA18BB28BC60121
:102FD000DD0CAA0BBB0B838B948BA58BB68BC70127
:102FE0000196A0E0B0E0878B908FA18FB28F338FD6
:102FF0002F5F248F158E0E948E06D80112966D9336
:103000007D938D939C9315971796BC92AE921697CD
:103010008CC0863109F05FC0A090B901B12CBA2CE8
:10302000AA248091B801A80EB11CC090BB01D12C7C
:10303000DC2CCC248091BA01C80ED11CE090BD01DB
:10304000F12CFE2CEE248091BC01E80EF11C8EE1E7
:1030500090E00E94351B8C012091B701FC01108685
:10306000118688E391E0918380832287C501BB0CA0
:10307000AA0BBB0B83879487A587B68725E030E032
:1030800040E050E02787308B418B528BC601DD0C2E
:10309000AA0BBB0B838B948BA58BB68BC7010196B8
:1030A000A0E0B0E0878B908FA18FB28F81E0838FFB
:1030B00082E0848F158E0E948E06D80112966D9341
:1030C0007D938D939C93159785E090E017969C9344
:1030D0008E9316972AC08731E9F5E090BA01F12C5A
:1030E000FE2CEE248091B901E80EF11C8CE090E0FA
:1030F0000E94351B8C018091B8019091B701F801B5
:103100001086118620E431E0318320839287838703
:103110000E948E06D80112966D937D938D939C9399
:1031200015971796FC92EE9216970E94F70CBC0129
:10313000990F880B990B611571058105910511F0A7
:103140000E94C11CE0911603F0911703E80DF91DD0
:1031500011830083322D80E090E021E22093A001D2
:1031600020E32093A101B1E08B278170982F9195E6
:103170009093A20181113B83EB81E093A3010C9416
:10318000801089EB91E00E94990D8091B601803109
:1031900058F500E010E0FF24F394E0911603F0915D
:1031A0001703E00FF11F808191810097A9F0DC01E6
:1031B000ED91FC910190F081E02D6091B6010995AF
:1031C000882351F0E0911603F0911703E00FF11FEF
:1031D0000190F081E02DF0860E5F1F4F0431110544
:1031E000E1F680E090E002C081E090E021E22093EF
:1031F000A00121E32093A101B1E08B27819547C075
:1032000080EE810F8A3038F58EE991E00E94990DA9
:103210009091B6012FEF290F8091B5012E3F90F0CC
:10322000E82FF0E0EE0FFF1FE05CFE4F21E030E002
:103230009F3F11F020E030E0318320839FEF909397
:10324000A20102C01092A20191E29093A00180938A
:10325000A1010C9480101A52163010F00C948010BA
:103260008DE791E00E94990D2091B501E22FF0E0E9
:10327000EE0FFF1FE05CFE4F8091B60190E091835E
:10328000808381E28093A0012093A1018FEF80933E
:10329000A2010C948010EDE6F2E01382128288EE17
:1032A00093E0A0E0B0E084839583A683B78328E40D
:1032B00031E03183208325EC30E03587248724EC0E
:1032C00030E03787268720EC30E0318B208B21ECF3
:1032D00030E0338B228B22EC30E0358B248B26ECD4
:1032E00030E0378B268B118E128E138E148EEAE00F
:1032F000F3E01382128284839583A683B78388E5E3
:1033000091E09183808384E190E00E94351B90934B
:103310001703809316030895EE0FFF1F0590F49195
:10332000E02D09940E94A6190C948E1A0E94871A07
:1033300058F00E94801A40F029F45F3F29F00C9465
:10334000771A51110C94C21A0C947D1A0E949F1A7C
:1033500068F39923B1F3552391F3951B550BBB27C4
:10336000AA2762177307840738F09F5F5F4F220F09
:10337000331F441FAA1FA9F335D00E2E3AF0E0E800
:1033800032D091505040E695001CCAF72BD0FE2F4A
:1033900029D0660F771F881FBB1F261737074807DE
:1033A000AB07B0E809F0BB0B802DBF01FF27935896
:1033B0005F4F3AF09E3F510578F00C94771A0C94C9
:1033C000C21A5F3FE4F3983ED4F3869577956795EC
:1033D000B795F7959F5FC9F7880F911D96958795CB
:1033E00097F90895E1E0660F771F881FBB1F6217EA
:1033F00073078407BA0720F0621B730B840BBA0BA8
:10340000EE1F88F7E09508950E940B1A6894B11199
:103410000C94C21A08950E94A71A88F09F5798F03A
:10342000B92F9927B751B0F0E1F0660F771F881FC9
:10343000991F1AF0BA95C9F714C0B13091F00E94E3
:10344000C11AB1E008950C94C11A672F782F88270C
:10345000B85F39F0B93FCCF3869577956795B3950A
:10346000D9F73EF490958095709561957F4F8F4F79
:103470009F4F0895E89409C097FB3EF4909580957E
:10348000709561957F4F8F4F9F4F9923A9F0F92F2A
:1034900096E9BB279395F695879577956795B795A8
:1034A000F111F8CFFAF4BB0F11F460FF1BC06F5F8E
:1034B0007F4F8F4F9F4F16C0882311F096E911C0A0
:1034C000772321F09EE8872F762F05C0662371F0C1
:1034D00096E8862F70E060E02AF09A95660F771FD5
:1034E000881FDAF7880F9695879597F9089597F9C9
:1034F0009F6780E870E060E008959FEF80EC08959A
:1035000000240A94161617061806090608950024C2
:103510000A9412161306140605060895092E03943C
:10352000000C11F4882352F0BB0F40F4BF2B11F4B0
:1035300060FF04C06F5F7F4F8F4F9F4F089557FD0F
:103540009058440F551F59F05F3F71F04795880F11
:1035500097FB991F61F09F3F79F0879508951216A8
:1035600013061406551FF2CF4695F1DF08C0161654
:1035700017061806991FF1CF869571056105089405
:103580000895E894BB2766277727CB0197F908951C
:103590000E94DB1A0C948E1A0E94801A38F00E9446
:1035A000871A20F0952311F00C94771A0C947D1A49
:1035B00011240C94C21A0E949F1A70F3959FC1F3B4
:1035C000950F50E0551F629FF001729FBB27F00DD1
:1035D000B11D639FAA27F00DB11DAA1F649F662726
:1035E000B00DA11D661F829F2227B00DA11D621F75
:1035F000739FB00DA11D621F839FA00D611D221F2F
:10360000749F3327A00D611D231F849F600D211D12
:10361000822F762F6A2F11249F5750409AF0F1F095
:1036200088234AF0EE0FFF1FBB1F661F771F881FFE
:1036300091505040A9F79E3F510580F00C94771AA5
:103640000C94C21A5F3FE4F3983ED4F386957795C5
:103650006795B795F795E7959F5FC1F7FE2B880FA4
:10366000911D9695879597F90895CF93DF938230B2
:10367000910510F482E090E0E0911A03F0911B03B1
:1036800020E030E0C0E0D0E0309711F1408151817E
:1036900048175907C0F04817590761F48281938190
:1036A000209719F09B838A832BC090931B038093F0
:1036B0001A0326C02115310519F04217530718F4D3
:1036C0009A01BE01DF01EF010280F381E02DDCCF22
:1036D0002115310509F1281B390B2430310590F4EF
:1036E00012968D919C9113976115710521F0FB0144
:1036F0009383828304C090931B0380931A03FD017C
:10370000329644C0FD01E20FF31F81939193225042
:1037100031092D933C933AC020911803309119033D
:10372000232B41F4209104013091050130931903BA
:1037300020931803209102013091030121153105D6
:1037400041F42DB73EB74091060150910701241B6B
:10375000350BE0911803F0911903E217F307A0F479
:103760002E1B3F0B2817390778F0AC014E5F5F4FD7
:103770002417350748F04E0F5F1F509319034093ED
:1037800018038193919302C0E0E0F0E0CF01DF9154
:10379000CF9108950F931F93CF93DF93009709F470
:1037A0008CC0FC0132971382128200911A0310918F
:1037B0001B030115110581F420813181820F931FB4
:1037C00020911803309119032817390779F5F093E0
:1037D0001903E093180371C0D80140E050E0AE1720
:1037E000BF0750F412962D913C911397AD0121150E
:1037F000310509F1D901F3CF9D01DA013383228329
:1038000060817181860F971F8217930769F4EC011D
:1038100028813981260F371F2E5F3F4F3183208348
:103820008A819B8193838283452B29F4F0931B0328
:10383000E0931A0342C01396FC93EE931297ED01A6
:10384000499159919E01240F351FE217F30771F436
:1038500080819181840F951F029611969C938E937F
:103860008281938113969C938E931297E0E0F0E00F
:10387000D80112968D919C911397009719F0F80139
:103880008C01F6CF8D919C9198012E5F3F4F820F56
:10389000931F20911803309119032817390769F4F1
:1038A000309729F410921B0310921A0302C013825E
:1038B00012821093190300931803DF91CF911F9187
:1038C0000F91089581E090E0F8940C94431DDC0181
:1038D00001C06D9341505040E0F708958F929F9240
:1038E000AF92BF92CF92DF92EF92FF92CF93DF938E
:1038F000EC01688179818A819B816115710581055F
:10390000910521F464E279ED8BE597E02DE133EF49
:1039100041E050E00E94E01C49015A019B01AC01CA
:10392000A7EAB1E40E94FF1C6B017C01ACEEB4EF8E
:10393000A50194010E940D1DDC01CB018C0D9D1D84
:10394000AE1DBF1DB7FF03C00197A109B048888312
:103950009983AA83BB83BC01CD019F77DF91CF916F
:10396000FF90EF90DF90CF90BF90AF909F908F909F
:1039700008950E946E1C089588E091E00E946E1CDC
:103980000895609308017093090180930A01909350
:103990000B010895F999FECF92BD81BDF89A992740
:1039A00080B50895262FF999FECF1FBA92BD81BD2B
:1039B00020BD0FB6F894FA9AF99A0FBE01960895B1
:1039C000052E97FB1EF400940E94F71C57FD07D0AC
:1039D0000E94121D07FC03D04EF40C94F71C509566
:1039E0004095309521953F4F4F4F5F4F08959095EB
:1039F0008095709561957F4F8F4F9F4F08950E94DE
:103A0000341DA59F900DB49F900DA49F800D911D16
:103A100011240895B7FF0C94FF1C0E94FF1C821B09
:103A2000930B0895A1E21A2EAA1BBB1BFD010DC02A
:103A3000AA1FBB1FEE1FFF1FA217B307E407F5075E
:103A400020F0A21BB30BE40BF50B661F771F881F3A
:103A5000991F1A9469F760957095809590959B01D0
:103A6000AC01BD01CF010895A29FB001B39FC00179
:103A7000A39F700D811D1124911DB29F700D811D9A
:0A3A80001124911D0895F894FFCF62
:103A8A00770200001C038000010000000000000013
:103A9A00F004A70A00000000E404500A0000000035
:103AAA00D8047D0900000000C004E30800000000FB
:103ABA00B304FC0700000000AC047D07000000000E
:103ACA00A0049A06000000003303AF02FC02DA02E7
:103ADA00EE027A03000000004E043A0432041E0487
:103AEA000F040E04526561647921000D0A002D004D
:00000001FF
